{
  "_format": "hh-sol-artifact-1",
  "contractName": "Certificate",
  "sourceName": "contracts/Certificate.sol",
  "abi": [
    {
      "inputs": [],
      "stateMutability": "nonpayable",
      "type": "constructor"
    },
    {
      "anonymous": false,
      "inputs": [
        {
          "indexed": true,
          "internalType": "address",
          "name": "client",
          "type": "address"
        },
        {
          "indexed": false,
          "internalType": "string",
          "name": "ipfsHash",
          "type": "string"
        },
        {
          "indexed": false,
          "internalType": "string",
          "name": "insuranceType",
          "type": "string"
        },
        {
          "indexed": false,
          "internalType": "uint256",
          "name": "timestamp",
          "type": "uint256"
        }
      ],
      "name": "CertificateIssued",
      "type": "event"
    },
    {
      "inputs": [
        {
          "internalType": "address",
          "name": "client",
          "type": "address"
        },
        {
          "internalType": "string",
          "name": "ipfsHash",
          "type": "string"
        },
        {
          "internalType": "string",
          "name": "insuranceType",
          "type": "string"
        }
      ],
      "name": "addCertificate",
      "outputs": [],
      "stateMutability": "nonpayable",
      "type": "function"
    },
    {
      "inputs": [
        {
          "internalType": "uint256",
          "name": "",
          "type": "uint256"
        }
      ],
      "name": "clients",
      "outputs": [
        {
          "internalType": "address",
          "name": "",
          "type": "address"
        }
      ],
      "stateMutability": "view",
      "type": "function"
    },
    {
      "inputs": [],
      "name": "getAllClients",
      "outputs": [
        {
          "internalType": "address[]",
          "name": "",
          "type": "address[]"
        }
      ],
      "stateMutability": "view",
      "type": "function"
    },
    {
      "inputs": [
        {
          "internalType": "string",
          "name": "insuranceType",
          "type": "string"
        }
      ],
      "name": "getCertificateCountByType",
      "outputs": [
        {
          "internalType": "uint256",
          "name": "",
          "type": "uint256"
        }
      ],
      "stateMutability": "view",
      "type": "function"
    },
    {
      "inputs": [
        {
          "internalType": "address",
          "name": "client",
          "type": "address"
        }
      ],
      "name": "getClientCertificateCount",
      "outputs": [
        {
          "internalType": "uint256",
          "name": "",
          "type": "uint256"
        }
      ],
      "stateMutability": "view",
      "type": "function"
    },
    {
      "inputs": [
        {
          "internalType": "address",
          "name": "client",
          "type": "address"
        }
      ],
      "name": "getClientCertificates",
      "outputs": [
        {
          "components": [
            {
              "internalType": "string",
              "name": "ipfsHash",
              "type": "string"
            },
            {
              "internalType": "string",
              "name": "insuranceType",
              "type": "string"
            },
            {
              "internalType": "uint256",
              "name": "timestamp",
              "type": "uint256"
            }
          ],
          "internalType": "struct Certificate.CertificateData[]",
          "name": "",
          "type": "tuple[]"
        }
      ],
      "stateMutability": "view",
      "type": "function"
    },
    {
      "inputs": [
        {
          "internalType": "address",
          "name": "client",
          "type": "address"
        }
      ],
      "name": "getClientInsuranceTypes",
      "outputs": [
        {
          "internalType": "string[]",
          "name": "",
          "type": "string[]"
        }
      ],
      "stateMutability": "view",
      "type": "function"
    },
    {
      "inputs": [
        {
          "internalType": "address",
          "name": "client",
          "type": "address"
        }
      ],
      "name": "getLatestCertificate",
      "outputs": [
        {
          "internalType": "string",
          "name": "",
          "type": "string"
        },
        {
          "internalType": "string",
          "name": "",
          "type": "string"
        },
        {
          "internalType": "uint256",
          "name": "",
          "type": "uint256"
        }
      ],
      "stateMutability": "view",
      "type": "function"
    },
    {
      "inputs": [],
      "name": "getTotalCertificates",
      "outputs": [
        {
          "internalType": "uint256",
          "name": "",
          "type": "uint256"
        }
      ],
      "stateMutability": "view",
      "type": "function"
    },
    {
      "inputs": [],
      "name": "owner",
      "outputs": [
        {
          "internalType": "address",
          "name": "",
          "type": "address"
        }
      ],
      "stateMutability": "view",
      "type": "function"
    },
    {
      "inputs": [],
      "name": "totalCertificates",
      "outputs": [
        {
          "internalType": "uint256",
          "name": "",
          "type": "uint256"
        }
      ],
      "stateMutability": "view",
      "type": "function"
    }
  ],
  "bytecode": "0x6080604052348015600f57600080fd5b50336000806101000a81548173ffffffffffffffffffffffffffffffffffffffff021916908373ffffffffffffffffffffffffffffffffffffffff160217905550611ac08061005f6000396000f3fe608060405234801561001057600080fd5b50600436106100a95760003560e01c8063b11110ec11610071578063b11110ec14610168578063c35c60d51461019a578063e3eb6d3d146101ca578063e4d7a3d4146101fa578063f88af21d14610218578063ffecb92f14610248576100a9565b80634ad5bffb146100ae578063596b772f146100de5780637843bb79146100fc5780638da5cb5b1461011a5780638f8f3df514610138575b600080fd5b6100c860048036038101906100c39190610ea5565b610264565b6040516100d59190611094565b60405180910390f35b6100e6610430565b6040516100f391906110c5565b60405180910390f35b610104610436565b60405161011191906110c5565b60405180910390f35b610122610440565b60405161012f91906110ef565b60405180910390f35b610152600480360381019061014d9190610ea5565b610464565b60405161015f91906110c5565b60405180910390f35b610182600480360381019061017d9190610ea5565b6104b0565b60405161019193929190611154565b60405180910390f35b6101b460048036038101906101af9190610ea5565b61073f565b6040516101c1919061125b565b60405180910390f35b6101e460048036038101906101df91906112e2565b6109bc565b6040516101f191906110c5565b60405180910390f35b6102026109e7565b60405161020f91906113ed565b60405180910390f35b610232600480360381019061022d919061143b565b610a75565b60405161023f91906110ef565b60405180910390f35b610262600480360381019061025d9190611468565b610ab4565b005b6060600160008373ffffffffffffffffffffffffffffffffffffffff1673ffffffffffffffffffffffffffffffffffffffff168152602001908152602001600020805480602002602001604051908101604052809291908181526020016000905b8282101561042557838290600052602060002090600302016040518060600160405290816000820180546102f89061152c565b80601f01602080910402602001604051908101604052809291908181526020018280546103249061152c565b80156103715780601f1061034657610100808354040283529160200191610371565b820191906000526020600020905b81548152906001019060200180831161035457829003601f168201915b5050505050815260200160018201805461038a9061152c565b80601f01602080910402602001604051908101604052809291908181526020018280546103b69061152c565b80156104035780601f106103d857610100808354040283529160200191610403565b820191906000526020600020905b8154815290600101906020018083116103e657829003601f168201915b50505050508152602001600282015481525050815260200190600101906102c5565b505050509050919050565b60055481565b6000600554905090565b60008054906101000a900473ffffffffffffffffffffffffffffffffffffffff1681565b6000600160008373ffffffffffffffffffffffffffffffffffffffff1673ffffffffffffffffffffffffffffffffffffffff168152602001908152602001600020805490509050919050565b606080600080600160008673ffffffffffffffffffffffffffffffffffffffff1673ffffffffffffffffffffffffffffffffffffffff1681526020019081526020016000208054905011610539576040517f08c379a0000000000000000000000000000000000000000000000000000000008152600401610530906115a9565b60405180910390fd5b6000600160008673ffffffffffffffffffffffffffffffffffffffff1673ffffffffffffffffffffffffffffffffffffffff16815260200190815260200160002060018060008873ffffffffffffffffffffffffffffffffffffffff1673ffffffffffffffffffffffffffffffffffffffff168152602001908152602001600020805490506105c891906115f8565b815481106105d9576105d861162c565b5b90600052602060002090600302016040518060600160405290816000820180546106029061152c565b80601f016020809104026020016040519081016040528092919081815260200182805461062e9061152c565b801561067b5780601f106106505761010080835404028352916020019161067b565b820191906000526020600020905b81548152906001019060200180831161065e57829003601f168201915b505050505081526020016001820180546106949061152c565b80601f01602080910402602001604051908101604052809291908181526020018280546106c09061152c565b801561070d5780601f106106e25761010080835404028352916020019161070d565b820191906000526020600020905b8154815290600101906020018083116106f057829003601f168201915b505050505081526020016002820154815250509050806000015181602001518260400151935093509350509193909250565b60606000600160008473ffffffffffffffffffffffffffffffffffffffff1673ffffffffffffffffffffffffffffffffffffffff168152602001908152602001600020805480602002602001604051908101604052809291908181526020016000905b8282101561090257838290600052602060002090600302016040518060600160405290816000820180546107d59061152c565b80601f01602080910402602001604051908101604052809291908181526020018280546108019061152c565b801561084e5780601f106108235761010080835404028352916020019161084e565b820191906000526020600020905b81548152906001019060200180831161083157829003601f168201915b505050505081526020016001820180546108679061152c565b80601f01602080910402602001604051908101604052809291908181526020018280546108939061152c565b80156108e05780601f106108b5576101008083540402835291602001916108e0565b820191906000526020600020905b8154815290600101906020018083116108c357829003601f168201915b50505050508152602001600282015481525050815260200190600101906107a2565b5050505090506000815167ffffffffffffffff8111156109255761092461165b565b5b60405190808252806020026020018201604052801561095857816020015b60608152602001906001900390816109435790505b50905060005b82518110156109b15782818151811061097a5761097961162c565b5b6020026020010151602001518282815181106109995761099861162c565b5b6020026020010181905250808060010191505061095e565b508092505050919050565b6000600383836040516109d09291906116c9565b908152602001604051809103902054905092915050565b60606004805480602002602001604051908101604052809291908181526020018280548015610a6b57602002820191906000526020600020905b8160009054906101000a900473ffffffffffffffffffffffffffffffffffffffff1673ffffffffffffffffffffffffffffffffffffffff1681526020019060010190808311610a21575b5050505050905090565b60048181548110610a8557600080fd5b906000526020600020016000915054906101000a900473ffffffffffffffffffffffffffffffffffffffff1681565b60008054906101000a900473ffffffffffffffffffffffffffffffffffffffff1673ffffffffffffffffffffffffffffffffffffffff163373ffffffffffffffffffffffffffffffffffffffff1614610b42576040517f08c379a0000000000000000000000000000000000000000000000000000000008152600401610b399061172e565b60405180910390fd5b600260008673ffffffffffffffffffffffffffffffffffffffff1673ffffffffffffffffffffffffffffffffffffffff16815260200190815260200160002060009054906101000a900460ff16610c4f576001600260008773ffffffffffffffffffffffffffffffffffffffff1673ffffffffffffffffffffffffffffffffffffffff16815260200190815260200160002060006101000a81548160ff0219169083151502179055506004859080600181540180825580915050600190039060005260206000200160009091909190916101000a81548173ffffffffffffffffffffffffffffffffffffffff021916908373ffffffffffffffffffffffffffffffffffffffff1602179055505b600160008673ffffffffffffffffffffffffffffffffffffffff1673ffffffffffffffffffffffffffffffffffffffff168152602001908152602001600020604051806060016040528086868080601f016020809104026020016040519081016040528093929190818152602001838380828437600081840152601f19601f82011690508083019250505050505050815260200184848080601f016020809104026020016040519081016040528093929190818152602001838380828437600081840152601f19601f8201169050808301925050505050505081526020014281525090806001815401808255809150506001900390600052602060002090600302016000909190919091506000820151816000019081610d6f91906118fa565b506020820151816001019081610d8591906118fa565b5060408201518160020155505060038282604051610da49291906116c9565b90815260200160405180910390206000815480929190610dc3906119cc565b919050555060056000815480929190610ddb906119cc565b91905055508473ffffffffffffffffffffffffffffffffffffffff167ffc04e6ee7273408aa842fb2467d7b5f0aca21e3781a0dc2d0d872ed96d5d114a8585858542604051610e2e959493929190611a41565b60405180910390a25050505050565b600080fd5b600080fd5b600073ffffffffffffffffffffffffffffffffffffffff82169050919050565b6000610e7282610e47565b9050919050565b610e8281610e67565b8114610e8d57600080fd5b50565b600081359050610e9f81610e79565b92915050565b600060208284031215610ebb57610eba610e3d565b5b6000610ec984828501610e90565b91505092915050565b600081519050919050565b600082825260208201905092915050565b6000819050602082019050919050565b600081519050919050565b600082825260208201905092915050565b60005b83811015610f38578082015181840152602081019050610f1d565b60008484015250505050565b6000601f19601f8301169050919050565b6000610f6082610efe565b610f6a8185610f09565b9350610f7a818560208601610f1a565b610f8381610f44565b840191505092915050565b6000819050919050565b610fa181610f8e565b82525050565b60006060830160008301518482036000860152610fc48282610f55565b91505060208301518482036020860152610fde8282610f55565b9150506040830151610ff36040860182610f98565b508091505092915050565b600061100a8383610fa7565b905092915050565b6000602082019050919050565b600061102a82610ed2565b6110348185610edd565b93508360208202850161104685610eee565b8060005b8581101561108257848403895281516110638582610ffe565b945061106e83611012565b925060208a0199505060018101905061104a565b50829750879550505050505092915050565b600060208201905081810360008301526110ae818461101f565b905092915050565b6110bf81610f8e565b82525050565b60006020820190506110da60008301846110b6565b92915050565b6110e981610e67565b82525050565b600060208201905061110460008301846110e0565b92915050565b600082825260208201905092915050565b600061112682610efe565b611130818561110a565b9350611140818560208601610f1a565b61114981610f44565b840191505092915050565b6000606082019050818103600083015261116e818661111b565b90508181036020830152611182818561111b565b905061119160408301846110b6565b949350505050565b600081519050919050565b600082825260208201905092915050565b6000819050602082019050919050565b60006111d18383610f55565b905092915050565b6000602082019050919050565b60006111f182611199565b6111fb81856111a4565b93508360208202850161120d856111b5565b8060005b85811015611249578484038952815161122a85826111c5565b9450611235836111d9565b925060208a01995050600181019050611211565b50829750879550505050505092915050565b6000602082019050818103600083015261127581846111e6565b905092915050565b600080fd5b600080fd5b600080fd5b60008083601f8401126112a2576112a161127d565b5b8235905067ffffffffffffffff8111156112bf576112be611282565b5b6020830191508360018202830111156112db576112da611287565b5b9250929050565b600080602083850312156112f9576112f8610e3d565b5b600083013567ffffffffffffffff81111561131757611316610e42565b5b6113238582860161128c565b92509250509250929050565b600081519050919050565b600082825260208201905092915050565b6000819050602082019050919050565b61136481610e67565b82525050565b6000611376838361135b565b60208301905092915050565b6000602082019050919050565b600061139a8261132f565b6113a4818561133a565b93506113af8361134b565b8060005b838110156113e05781516113c7888261136a565b97506113d283611382565b9250506001810190506113b3565b5085935050505092915050565b60006020820190508181036000830152611407818461138f565b905092915050565b61141881610f8e565b811461142357600080fd5b50565b6000813590506114358161140f565b92915050565b60006020828403121561145157611450610e3d565b5b600061145f84828501611426565b91505092915050565b60008060008060006060868803121561148457611483610e3d565b5b600061149288828901610e90565b955050602086013567ffffffffffffffff8111156114b3576114b2610e42565b5b6114bf8882890161128c565b9450945050604086013567ffffffffffffffff8111156114e2576114e1610e42565b5b6114ee8882890161128c565b92509250509295509295909350565b7f4e487b7100000000000000000000000000000000000000000000000000000000600052602260045260246000fd5b6000600282049050600182168061154457607f821691505b602082108103611557576115566114fd565b5b50919050565b7f4e6f2063657274696669636174657320666f756e640000000000000000000000600082015250565b600061159360158361110a565b915061159e8261155d565b602082019050919050565b600060208201905081810360008301526115c281611586565b9050919050565b7f4e487b7100000000000000000000000000000000000000000000000000000000600052601160045260246000fd5b600061160382610f8e565b915061160e83610f8e565b9250828203905081811115611626576116256115c9565b5b92915050565b7f4e487b7100000000000000000000000000000000000000000000000000000000600052603260045260246000fd5b7f4e487b7100000000000000000000000000000000000000000000000000000000600052604160045260246000fd5b600081905092915050565b82818337600083830152505050565b60006116b0838561168a565b93506116bd838584611695565b82840190509392505050565b60006116d68284866116a4565b91508190509392505050565b7f416363c3a8732072c3a973657276c3a920c3a0206c276167656e636500000000600082015250565b6000611718601c8361110a565b9150611723826116e2565b602082019050919050565b600060208201905081810360008301526117478161170b565b9050919050565b60008190508160005260206000209050919050565b60006020601f8301049050919050565b600082821b905092915050565b6000600883026117b07fffffffffffffffffffffffffffffffffffffffffffffffffffffffffffffffff82611773565b6117ba8683611773565b95508019841693508086168417925050509392505050565b6000819050919050565b60006117f76117f26117ed84610f8e565b6117d2565b610f8e565b9050919050565b6000819050919050565b611811836117dc565b61182561181d826117fe565b848454611780565b825550505050565b600090565b61183a61182d565b611845818484611808565b505050565b5b818110156118695761185e600082611832565b60018101905061184b565b5050565b601f8211156118ae5761187f8161174e565b61188884611763565b81016020851015611897578190505b6118ab6118a385611763565b83018261184a565b50505b505050565b600082821c905092915050565b60006118d1600019846008026118b3565b1980831691505092915050565b60006118ea83836118c0565b9150826002028217905092915050565b61190382610efe565b67ffffffffffffffff81111561191c5761191b61165b565b5b611926825461152c565b61193182828561186d565b600060209050601f8311600181146119645760008415611952578287015190505b61195c85826118de565b8655506119c4565b601f1984166119728661174e565b60005b8281101561199a57848901518255600182019150602085019450602081019050611975565b868310156119b757848901516119b3601f8916826118c0565b8355505b6001600288020188555050505b505050505050565b60006119d782610f8e565b91507fffffffffffffffffffffffffffffffffffffffffffffffffffffffffffffffff8203611a0957611a086115c9565b5b600182019050919050565b6000611a20838561110a565b9350611a2d838584611695565b611a3683610f44565b840190509392505050565b60006060820190508181036000830152611a5c818789611a14565b90508181036020830152611a71818587611a14565b9050611a8060408301846110b6565b969550505050505056fea26469706673582212206804a0ea44008ec5a0787e43d34bb168dcc219441c4302dd36bf00fe7b61670064736f6c634300081c0033",
  "linkReferences": {},
  "deployedLinkReferences": {}
}