{
  "_format": "hh-sol-artifact-1",
  "contractName": "Certificate",
  "sourceName": "contracts/Certificate.sol",
  "abi": [
    {
      "inputs": [],
      "stateMutability": "nonpayable",
      "type": "constructor"
    },
    {
      "anonymous": false,
      "inputs": [
        {
          "indexed": true,
          "internalType": "address",
          "name": "student",
          "type": "address"
        },
        {
          "indexed": false,
          "internalType": "string",
          "name": "ipfsHash",
          "type": "string"
        }
      ],
      "name": "CertificateIssued",
      "type": "event"
    },
    {
      "inputs": [
        {
          "internalType": "address",
          "name": "student",
          "type": "address"
        },
        {
          "internalType": "string",
          "name": "ipfsHash",
          "type": "string"
        }
      ],
      "name": "addCertificate",
      "outputs": [],
      "stateMutability": "nonpayable",
      "type": "function"
    },
    {
      "inputs": [
        {
          "internalType": "address",
          "name": "student",
          "type": "address"
        }
      ],
      "name": "getCertificate",
      "outputs": [
        {
          "internalType": "string",
          "name": "",
          "type": "string"
        }
      ],
      "stateMutability": "view",
      "type": "function"
    },
    {
      "inputs": [],
      "name": "owner",
      "outputs": [
        {
          "internalType": "address",
          "name": "",
          "type": "address"
        }
      ],
      "stateMutability": "view",
      "type": "function"
    }
  ],
  "bytecode": "0x6080604052348015600f57600080fd5b50336000806101000a81548173ffffffffffffffffffffffffffffffffffffffff021916908373ffffffffffffffffffffffffffffffffffffffff1602179055506109558061005f6000396000f3fe608060405234801561001057600080fd5b50600436106100415760003560e01c80634a14188d146100465780638da5cb5b14610062578063fd531e9314610080575b600080fd5b610060600480360381019061005b91906103a4565b6100b0565b005b61006a6101e2565b6040516100779190610413565b60405180910390f35b61009a6004803603810190610095919061042e565b610206565b6040516100a791906104eb565b60405180910390f35b60008054906101000a900473ffffffffffffffffffffffffffffffffffffffff1673ffffffffffffffffffffffffffffffffffffffff163373ffffffffffffffffffffffffffffffffffffffff161461013e576040517f08c379a00000000000000000000000000000000000000000000000000000000081526004016101359061057f565b60405180910390fd5b8181600160008673ffffffffffffffffffffffffffffffffffffffff1673ffffffffffffffffffffffffffffffffffffffff168152602001908152602001600020918261018c9291906107ef565b508273ffffffffffffffffffffffffffffffffffffffff167f4514a45e6f56567008e790fe2158e66d34e8b8254c060ad061d570274879147983836040516101d59291906108fb565b60405180910390a2505050565b60008054906101000a900473ffffffffffffffffffffffffffffffffffffffff1681565b6060600160008373ffffffffffffffffffffffffffffffffffffffff1673ffffffffffffffffffffffffffffffffffffffff168152602001908152602001600020805461025290610608565b80601f016020809104026020016040519081016040528092919081815260200182805461027e90610608565b80156102cb5780601f106102a0576101008083540402835291602001916102cb565b820191906000526020600020905b8154815290600101906020018083116102ae57829003601f168201915b50505050509050919050565b600080fd5b600080fd5b600073ffffffffffffffffffffffffffffffffffffffff82169050919050565b600061030c826102e1565b9050919050565b61031c81610301565b811461032757600080fd5b50565b60008135905061033981610313565b92915050565b600080fd5b600080fd5b600080fd5b60008083601f8401126103645761036361033f565b5b8235905067ffffffffffffffff81111561038157610380610344565b5b60208301915083600182028301111561039d5761039c610349565b5b9250929050565b6000806000604084860312156103bd576103bc6102d7565b5b60006103cb8682870161032a565b935050602084013567ffffffffffffffff8111156103ec576103eb6102dc565b5b6103f88682870161034e565b92509250509250925092565b61040d81610301565b82525050565b60006020820190506104286000830184610404565b92915050565b600060208284031215610444576104436102d7565b5b60006104528482850161032a565b91505092915050565b600081519050919050565b600082825260208201905092915050565b60005b8381101561049557808201518184015260208101905061047a565b60008484015250505050565b6000601f19601f8301169050919050565b60006104bd8261045b565b6104c78185610466565b93506104d7818560208601610477565b6104e0816104a1565b840191505092915050565b6000602082019050818103600083015261050581846104b2565b905092915050565b7f416363c3a8732072c3a973657276c3a920c3a0206c27c3a97461626c6973736560008201527f6d656e7400000000000000000000000000000000000000000000000000000000602082015250565b6000610569602483610466565b91506105748261050d565b604082019050919050565b600060208201905081810360008301526105988161055c565b9050919050565b600082905092915050565b7f4e487b7100000000000000000000000000000000000000000000000000000000600052604160045260246000fd5b7f4e487b7100000000000000000000000000000000000000000000000000000000600052602260045260246000fd5b6000600282049050600182168061062057607f821691505b602082108103610633576106326105d9565b5b50919050565b60008190508160005260206000209050919050565b60006020601f8301049050919050565b600082821b905092915050565b60006008830261069b7fffffffffffffffffffffffffffffffffffffffffffffffffffffffffffffffff8261065e565b6106a5868361065e565b95508019841693508086168417925050509392505050565b6000819050919050565b6000819050919050565b60006106ec6106e76106e2846106bd565b6106c7565b6106bd565b9050919050565b6000819050919050565b610706836106d1565b61071a610712826106f3565b84845461066b565b825550505050565b600090565b61072f610722565b61073a8184846106fd565b505050565b5b8181101561075e57610753600082610727565b600181019050610740565b5050565b601f8211156107a35761077481610639565b61077d8461064e565b8101602085101561078c578190505b6107a06107988561064e565b83018261073f565b50505b505050565b600082821c905092915050565b60006107c6600019846008026107a8565b1980831691505092915050565b60006107df83836107b5565b9150826002028217905092915050565b6107f9838361059f565b67ffffffffffffffff811115610812576108116105aa565b5b61081c8254610608565b610827828285610762565b6000601f8311600181146108565760008415610844578287013590505b61084e85826107d3565b8655506108b6565b601f19841661086486610639565b60005b8281101561088c57848901358255600182019150602085019450602081019050610867565b868310156108a957848901356108a5601f8916826107b5565b8355505b6001600288020188555050505b50505050505050565b82818337600083830152505050565b60006108da8385610466565b93506108e78385846108bf565b6108f0836104a1565b840190509392505050565b600060208201905081810360008301526109168184866108ce565b9050939250505056fea264697066735822122090100f1e5e525df40b4b9d56bd1ab23ab932a13ea25ea4774d2688c88e526f0264736f6c634300081c0033",
  "linkReferences": {},
  "deployedLinkReferences": {}
}